:020000040800F2
:10000000885E00205902000891230008691A000840
:10001000C12100080D0E0008094200080000000080
:10002000000000000000000000000000A101000826
:100030003914000800000000F501000889320008AA
:1000400073020008730200087302000873020008BC
:1000500073020008730200087302000873020008AC
:10006000730200087302000873020008730200089C
:10007000730200087302000873020008730200088C
:10008000730200087302000873020008730200087C
:10009000C90F000873020008730200087302000809
:1000A00073020008F1360008730200085D3300088F
:1000B00001370008113700082537000873020008CF
:1000C000730200087302000873020008730200083C
:1000D00073020008D93E000873020008D53F0008EB
:1000E000730200087302000873020008730200081C
:1000F000730200087302000873020008730200080C
:100100007302000873020008393700087302000800
:10011000613C0008730200087302000873020008C3
:1001200073020008730200087302000873020008DB
:1001300073020008730200087302000873020008CB
:1001400073020008730200087302000873020008BB
:1001500073020008730200087302000873020008AB
:10016000730200087302000873020008730200089B
:10017000730200087302000873020008730200088B
:100180007302000873020008DFF810D000F06AFB69
:100190000048004735550008AFF30080885E002016
:1001A0002A4B19680868B0E8F04F80F30988BFF35C
:1001B0006F8F4FF0000080F311887047000000003F
:1001C00006480068006880F3088862B661B6BFF32D
:1001D0004F8FBFF36F8F00DF00BF00BF08ED00E05F
:1001E000DFF80C00016841F470010160704700BF46
:1001F00088ED00E0EFF30980BFF36F8F134B1A68AF
:100200001EF0100F08BF20ED108A20E9F04F10609B
:1002100008B44FF0500080F31188BFF34F8FBFF345
:100220006F8F06F0A9FF4FF0000080F3118808BC23
:1002300019680868B0E8F04F1EF0100F08BFB0EC66
:10024000108A80F30988BFF36F8F7047D0000020B9
:10025000EFF30580704700000648804706480047D6
:10026000FEE7FEE7FEE7FEE7FEE7FEE7FEE7FEE766
:10027000FEE7FEE79D3200088901000840EA01031D
:100280009B0703D009E008C9121F08C0042AFAD24C
:1002900003E011F8013B00F8013B521EF9D2704710
:1002A000D2B201E000F8012B491EFBD270470022B8
:1002B000F6E710B513460A4604461946FFF7F0FF65
:1002C000204610BD2DE9FE4F804681EA0300C00F95
:1002D0000C46009021F0004123F00045B8EB0200ED
:1002E000A94105D24046214690461C460B4602468F
:1002F00023F00040104347D0270DC7F30A00C3F393
:100300000A510290401A019040286BDAC3F313009F
:1003100040F4801B0098924620B10023D2EB030AE0
:1003200063EB0B0B01985946C0F14002504600F0B8
:1003300045F906460D4650465946019A00F04DF9DA
:1003400010EB08006141002487EA115284EAE77348
:100350001A4340D0009A62B3019A012A4FEA075229
:1003600015DC001B61EB02014FF0004202EA07526C
:10037000CDE90042001C41F5801132462B4600F0C9
:1003800084F903B0BDE8F08F40462146F9E7001B31
:1003900061EB0201001C41F5801300185B4120183D
:1003A000A2F5001747EB030140EAD570B6196D417D
:1003B00011E06D084FEA360645EAC0754FEA07526C
:1003C000001B61EB0201001C41F5801149084FEA56
:1003D00030000019514132462B4603B0BDE8F04FC2
:1003E00000F044B90098012240000023D0EB020243
:1003F00063EBE073009821464FEAE074B8EB00002D
:1004000061EB0401E9E783F000435BE781F0004121
:1004100058E72DE9FE4F81EA030404F0004421F07F
:10042000004100944FF0000B23F0004350EA010418
:100430005ED052EA03045BD0C3F30A54C1F30A55F9
:100440002C44A4F2F3340194A0FB0254C1F3130131
:1004500041F48011C3F3130343F4801301FB0244FE
:1004600000FB034E840A970A44EA815447EA835703
:10047000A4FB076802958D0A05FB07854FEA932CBC
:1004800004FB0C542705029D4FEA065847EA16372D
:10049000B5EB08056EEB070C870E920E47EA811745
:1004A00042EA8312A7FB0201B6EB0B0164EB0004E6
:1004B0002B0D43EA0C335E1844EB1C50DA465146D0
:1004C000E7FB0201C5F313044FEA0B3343EA14536D
:1004D0004FEA0432019C43EA0603A4F10C0402949F
:1004E000009CCDE900B400F0D0F803B0BDE8F08F77
:1004F00000200146F9E70EB5C10F80EAE07008441C
:10050000CA07002140F233438DE80E000A460B462D
:1005100000F0BBF803B000BD0EB540F233410291CC
:100520000021CDE900110A460B4600F0AEF803B0F9
:1005300000BD00F0004230F000400AD0C10D01F5CE
:100540006071C0F3160042EA0151C208400711432E
:10055000704700200146704701F0004330B421F09D
:10056000004150EA010206D00A0DA2F56072C1F303
:100570001301002A02DC30BC00207047440F44EA1B
:10058000C104C100E01830BC00EBC25000F037B825
:1005900030B50B46014600202022012409E021FA53
:1005A00002F59D4205D303FA02F5491B04FA02F550
:1005B0002844151EA2F10102F1DC30BD202A04DB23
:1005C000203A00FA02F1002070479140C2F1200366
:1005D00020FA03F3194390407047202A06DBCB171B
:1005E000203A41FA02F043EAE07306E041FA02F3EE
:1005F000D040C2F1200291400843194670470029BB
:10060000A8BF7047401C490008BF20F00100704798
:1006100010B4B0FA80FC00FA0CF050EA010404BFF8
:1006200010BC704749B1CCF1200421FA04F411FA4E
:100630000CF118BF012121430843A3EB0C01CB1D92
:100640004FEA00614FEA102042BF002010BC704703
:1006500000EBC35010440029A4BF10BC7047401CDD
:10066000490008BF20F0010010BC704710B5141EEF
:1006700073F1000408DA401C41F1000192185B415B
:100680001A4301D120F0010010BD2DE9F04D924632
:100690009B4611B1B1FA81F202E0B0FA80F2203249
:1006A0009046FFF78BFF04460F4640EA0A0041EAF6
:1006B0000B0153465A46084313D0114653EA010032
:1006C00019D0C8F14002504600F0DEF805460E464B
:1006D000504659464246FFF771FF084305D00120B6
:1006E00004E020463946BDE8F08D0020054346EA87
:1006F000E0762C4337430A986305E40AA0EB080030
:100700000022FD0A44EA47540A3002D5002001467F
:10071000E9E7010510196941DDE90845001969415A
:10072000BDE8F04DA2E72DE9F04D81EA030404F0A5
:10073000004B21F0004514464FF0000A23F0004121
:1007400050EA050220D054EA01021DD0C5F30A5731
:100750000246C5F31303C1F31300C1F30A5640F474
:10076000801543F48013A7EB0608101BD64608F249
:10077000FD3873EB050002D308F1010801E092187F
:100780005B41B8F1000F03DA00200146BDE8F08DAF
:1007900000204FF48011064684460EE0171B73EBD1
:1007A000050705D3121B63EB050306434CEA010C56
:1007B00049084FEA300092185B4150EA0107EDD139
:1007C00052EA030012D082EA040083EA05010843DA
:1007D00005D0101BAB4106D20122002306E0002207
:1007E0004FF0004302E06FF0010253101AEB0600D5
:1007F0004CEB085110EB0A0041EB0B01BDE8F04D4A
:10080000FFF734BF70B521F0004303430CD0C1F3B0
:100810000A550024D5EB040564EB0403D617AD1A82
:10082000B34102DB0020014670BD201841EB0251AC
:1008300070BD000030B5041E71F1000404DB4FF000
:100840000044404264EB0101141E73F1000405DB17
:100850001C464FF00043524263EB0403994208BF29
:10086000904230BD064C074D06E0E06840F00103C1
:1008700094E8070098471034AC42F6D3FFF788FCA1
:100880001093000830930008202A04DB203A21FA54
:1008900002F00021704721FA02F3D040C2F1200299
:1008A00091400843194670472DE9F04D00231A4640
:1008B0001B1A8A4103DB00200146BDE8F08DC1F31D
:1008C0000A52C1F3130141F480154FF0000BD10718
:1008D00002D100186D41521E0027044640F2FF115C
:1008E000384601EB620A3E468046024600204FF43D
:1008F0008011FFF7C9FFC2197141BB1846EB010017
:10090000B4EB030C75EB000C04D3E41A65EB0005A3
:1009100017460E46241908F101006D41804634281F
:10092000E3DDF91946EB0600091BA84103D24FF09D
:10093000FF32134601E0002213461BEB070046EB93
:100940000A51BDE8F04DFFF791BE70B58C1810F854
:10095000015B15F0070301D110F8013B2A1106D104
:1009600010F8012B03E010F8016B01F8016B5B1E1E
:10097000F9D12B0705D40023521E0DD401F8013BF9
:10098000FAE710F8013BCB1A921C03E013F8015B65
:1009900001F8015B521EF9D5A142D8D3002070BDE9
:1009A0000029816802D041F0010101E021F001013C
:1009B00081607047084B10B5D3F8042307490A40FB
:1009C000D0E900142143D0E90240044321431143FC
:1009D000C3F8041310BD000000200140E030FCFF0C
:1009E000C06C80B270470246002012680A4200D0F4
:1009F0000120704730B542680F4B0C791A400B68E4
:100A000042EA04221343436082680C4B4D791A403A
:100A1000D1E9034323438C6844EA45042343134349
:100A20008360C26A097D22F47002491EC9B242EA9B
:100A30000151C16230BD0000FFFEFFFCFDF7FFC0A9
:100A400070B5072609290AD9C568A1F10A0404EB83
:100A50004404A640B543A3401D43C56007E00569B3
:100A600001EB4104A640B543A3401D4305611F238C
:100A7000072A09D2446B521E02EB820293409C4328
:100A800091400C43446370BD0D2A09D2046BD21F00
:100A900002EB820293409C4391400C43046370BD7F
:100AA000C46A0D3A02EB820293409C4391400C438E
:100AB000C46270BD816841F0804181607047000070
:100AC00038B536489FED360ADFED360A90ED001A4C
:100AD00051EE000AB1EE041A60EE810AB3EE0A1A72
:100AE000C0EE811AFDEEE10A10EE903A642B00DDB3
:100AF00064232D48D0ED000A60EE800AFDEEE00A86
:100B000010EE900A002800DA40422849D1ED000A90
:100B100020EE800ABDEEC00A10EE101A002900DA9D
:100B20004942234C2278A2B100222270214C257820
:100B3000012D10D0204DB5F904403AB3B5F902208B
:100B4000B5F9001001B02346BDE830401BA003F00A
:100B500087BB0122E9E71D4890ED000A1C48BDEE65
:100B6000C00A10EE103A90ED000A1A48BDEEC00A15
:100B700010EE102A90ED000A17A0BDEEC00A10EE8C
:100B8000101A03F06DFB0020207038BDCAB2C1B24C
:100B900015A0009403F064FB38BD0000180000208D
:100BA0000000C8420000FA44FC590020185A0020F6
:100BB000DC0100207F010020F80100207B42256439
:100BC0003A25643A25647D2400000000500100208D
:100BD0004C010020480100207B4325643A25643AFB
:100BE00025647D24000000007B4125643A25643A99
:100BF00025643A25647D2400F0B58DB001210420E0
:100C000002F05EF80121022002F05AF801210F02E1
:100C1000384602F06DF80E20032606908DF81C6011
:100C200000248DF81F4006A9184800F0DBFD0125BF
:100C30008DF81C6006958DF81F4006A9144800F039
:100C4000D1FD0121384602F05FF80021384602F05C
:100C50005BF8089428040B94CDE9090408A8FFF771
:100C6000A9FE8DF8044000948DF805400294049488
:100C7000084C8DF8145069462046FFF7BBFE012151
:100C80002046FFF78DFE0DB0F0BD000000080240C9
:100C900000040240002001402DED028B82B004F0E0
:100CA0002BFC40F6B83840F27E499FED4C8ADFF8C5
:100CB00030A14C4D4C4F4D4C4D4E00900A21684692
:100CC00006F088F82869404501DA401C286100F0E8
:100CD0004FFE2969494519DD4648007810B100F0FA
:100CE000E9FD13E04448007810B102F08FF80DE000
:100CF0004248007810B101F04FFF07E04048D0EDC6
:100D0000000A404890ED000A00F098FB2869A0F224
:100D1000E931632908D2F0EE480A9FED3B0A00F062
:100D20008DFB05F0A3FB09E0A0F24D40312805D270
:100D3000B0EE480AF0EE400A00F080FB9AED000A9F
:100D4000BDEEC00A10EE100A02F050FF08B9686844
:100D500018B10022114610463AE0D4ED040A94ED91
:100D6000000A01F01FF800EE100AB8EEC00A84ED88
:100D7000030AD6ED040A96ED000A01F051F800EEE0
:100D8000100AB8EEC00A86ED030A387850B101287F
:100D900008D002280DD003280BD0042809D005283C
:100DA00007D017E0BDEEC00A10EE101A94ED030A4A
:100DB00009E0B1EE400ABDEEC00A10EE101A94ED43
:100DC000030AB1EE400A0022BDEEC00A10EE100A7E
:100DD00002F014FA01F07AF870E700000000000059
:100DE000180000209401002045010020FC5900203B
:100DF000185A0020550100205601002054010020FF
:100E000068010020600100200AD7A33CFEE7000033
:100E10001CB50121082001F053FF4FF40060009041
:100E200001208DF8040000218DF8061003218DF8B3
:100E300005108DF807006946014800F0D3FC1CBD81
:100E4000000C02402DE9F04F87B00024E8B3E1B375
:100E5000DAB3D3B3491E401E01F0FF09C7B2521ED8
:100E60005B1E0121D6B29DB2084601F029FF012187
:100E7000480601F031FF4FF4C050049002208DF875
:100E800014004FF000088DF8168003208DF815002F
:100E9000DFF82CA14FF0010B8DF817B004A95046D4
:100EA00000F0A0FC09220B21504600F0D7FC0922DB
:100EB0000C21504600F0D2FC4248C0F80080016886
:100EC00041F001010160021D0AE0FFE7012007B0C7
:100ED000BDE8F08F641CA4B2642C01D90220F6E7AF
:100EE0001168C907F6D00168824601600168016097
:100EF00001680160016841F0100101600168016052
:100F0000016801602F4943461C31C1F80080D1F8C7
:100F10000080DDF840C048EA8C7CC1F800C0D1F800
:100F200000C04CEA07670F60D1F800C04CEA0957CF
:100F30000F600F6847EA06460E600E682E430E608B
:100F4000016821F0010101604FF6F07005E0641CBA
:100F5000A4B2844201D90320B9E71168C907F6D1C8
:100F60008DF80AB08DF80B308DF80CB0ADF800306C
:100F7000ADF804305C46ADF80230ADF80630ADF89F
:100F800008308DF80DB0684600F0A0F90D48143017
:100F9000016841F00201016014208DF818008DF8FD
:100FA000194003208DF81A008DF81B4006A801F0A7
:100FB000F1F901220221504600F0EEF9002086E707
:100FC000000002400064004070B588B002A907A884
:100FD000CDE9000106AB05AA04A9002000F07EF8C7
:100FE0000498A0F5807181395BD12F4801252F49E4
:100FF0000570002008702E49304E08702D49087089
:101000002D49087030709DF809009DF8081000EB1C
:10101000012212B200EE102A2A4AF8EEC00A9FED11
:10102000280A80EE801A82ED001A9DF80B209DF8A8
:101030000A3002EB032212B200EE902A224AF8EEA6
:10104000E00A80EE801A82ED001A9DF80D209DF8CE
:101050000C3002EB032424B200EE904A1B4CF8EE55
:10106000E00A80EE801A84ED001A194C2468012CE5
:1010700017D101EB002000B200EE100A15483570C0
:10108000B8EEC00A80ED010A03EB022000B2404234
:1010900000EE100A1048B8EEC00A80ED010A00F018
:1010A00067FC08B070BD000057010020540100200B
:1010B000550100205601002058010020D4010020D5
:1010C00000007A44600100206401002068010020D3
:1010D000F0010020FC590020185A0020F0B5224CE5
:1010E000DDE9057504EB0014D4F8B06516F00406CC
:1010F0001670D4F8B02532D0D2080A60D4F8B015F2
:1011000001F002011970D4F8B41501F00F01397023
:10111000D4F8B8152970D4F8B815090A6970D4F84C
:10112000B815090CA970D4F8B815090EE970D4F8EF
:10113000BC152971D4F8BC15090A6971D4F8BC151D
:10114000090CA971D4F8BC15090EE97148B1012840
:1011500004D10648016841F020010160F0BD520D44
:10116000CBE70248001FF5E7006000401064004034
:1011700038B50024009108232246214600F014F8D7
:10118000054640F6FF7301E0641CA4B2284600F057
:101190006BF8072801D09C42F6D39C4201D3012072
:1011A00038BD002038BD0000F0B506462C48059D2E
:1011B0000468640101D5002008E00468240101D519
:1011C000012003E00068C00046D50220254C00271E
:1011D00004EB0014C4F88075E9B3F600D4F8807508
:1011E0003743C4F88075D4F8806546EA8101C4F8B5
:1011F0008015D4F8801541EA4201C4F88015D4F86E
:10120000842503F00F0122F00F02C4F88425D4F8DE
:1012100084250A43C4F884252979EA796B7941EA5F
:101220000261AA79120442EA03221143C4F88C1520
:101230002978EA786B7841EA0261AA78120442EAD6
:1012400003221143C4F88815D4F8801541F0010138
:10125000C4F88015F0BD01E0FF20FBE77605BDE78F
:101260000864004000600040174928B1012810D0F0
:1012700002281BD00520704708680A6800F00100AA
:1012800002F002020243086800F0806042EA106047
:10129000704708680A6800F0010002F00202024389
:1012A000086800F0006042EA5060704708680A6809
:1012B00000F0010002F002020243086800F08050D2
:1012C00042EA90607047000008640040F0B5827AFE
:1012D0002F4D012191402A6842F001022A602C4ED4
:1012E0001C3632688A433260294A047B294B0C320F
:1012F000A4B914688C4314604488C78844EA07443E
:10130000877A03EBC707C7F840460488878844EA12
:101310000744877A03EBC707C7F84446047B012CD0
:1013200012D114680C431460847A026803EBC4047D
:101330004FEA3242C4F84026847A426803EBC40381
:101340004FEA3242C3F84426114AC37A121D002BD9
:10135000136806D00B4313600D4A0389143213B18E
:1013600004E08B43F7E713688B4313600389012B79
:1013700002D113680B431360407B012802D130680F
:1013800008433060286820F001002860F0BD0000AC
:101390000066004000600040002A426901D00A4314
:1013A00000E08A43426170477CB5144C00206D46D2
:1013B000215C2954401CC0B20828F9D3294640F2C8
:1013C0000110FFF7D5FE00202118097A2954401C8E
:1013D000C0B20828F8D369464FF48170FFF7C8FE01
:1013E00000202118097C2954401CC0B20828F8D3D9
:1013F000694640F20310FFF7BBFE7CBD5E0600208D
:1014000030B503460020012908D10022094C03E031
:10141000A55C6840521CD2B29A42F9D3002908D187
:10142000044A323203E0545C6040491CC9B299421C
:10143000F9D330BD5E06002070470000164800B5A5
:10144000F0EE401A90ED000AB6EE001A134960EE75
:10145000800AB0EE610A1248B0EE0C2A00EEC10A12
:1014600040EE811AB0EE421A81ED040AC0ED041A72
:10147000F8EE0C1AF0EE610A05F0BDF981ED040AF0
:1014800090ED040AB0EE421AF0EE610A05F0B3F9ED
:1014900080ED040A00BD000074010020FC5900200A
:1014A000185A00201CB50121102001F009FC102061
:1014B000009000208DF8040003208DF80500012025
:1014C0008DF807006946024800F08CF91CBD000049
:1014D00000100240F0B5012189B0084601F0FCFB84
:1014E0000121032001F0ECFB03258DF805500226B5
:1014F0004FF400408DF8046001242B4F00908DF8CC
:1015000006408DF807406946384600F06BF98DF8C3
:1015100005508DF804608DF806408DF807400820CE
:10152000224C00906946204600F05CF901220F2110
:10153000384600F093F901220321204600F08EF98D
:1015400002A802F049FB00244FF6FF70ADF80840F6
:1015500003907507ADF81040ADF80A4002A928467F
:1015600002F0FCFA00231A460321284602F013F980
:1015700005A802F093F9ADF81C4005A9284602F031
:1015800037F90121284602F0EBF8012211462846DE
:1015900002F08CF90021284602F0B6FA0121284613
:1015A00002F0E4F809B0F0BD00000240000402407F
:1015B00030B589B00121022001F08EFB01210846DF
:1015C00001F07EFBC020039003208DF81100022063
:1015D0008DF8100001208DF81200224C8DF81300B8
:1015E00003A9204600F0FEF802220621204600F062
:1015F00035F902220721204600F030F9684602F052
:10160000EBFA00244FF6FF70174DADF80040019043
:10161000ADF80840ADF802406946284602F09EFA4F
:1016200000231A460321284602F0B5F805A802F067
:1016300035F9ADF81C4005A9284602F0D9F801217A
:10164000284602F08DF801221146284602F02EF9B4
:101650000021284602F058FA0121284602F086F8B7
:1016600009B030BD000002400004004030B589B030
:101670000121042001F030FB0121022001F020FBB8
:10168000C020039003208DF8110002208DF8100077
:1016900001208DF81200224C8DF8130003A920467A
:1016A00000F0A0F802220621204600F0D7F802221E
:1016B0000721204600F0D2F8684602F08DFA002497
:1016C0004FF6FF70174DADF800400190ADF808409F
:1016D000ADF802406946284602F040FA00231A4657
:1016E0000321284602F057F805A802F0D7F8ADF814
:1016F0001C4005A9284602F07BF80121284602F08B
:101700002FF801221146284602F0D0F80021284681
:1017100002F0FAF90121284602F028F809B030BD9C
:10172000000402400008004030B589B001210820C3
:1017300001F0D2FA0121084601F0C2FA0320039019
:101740008DF8110002208DF8100001208DF8120094
:10175000224C8DF8130003A9204600F043F8022222
:101760000021204600F07AF802220121204600F0F4
:1017700075F8684602F030FA00244FF6FF70184DF5
:10178000ADF800400190ADF80840ADF80240694660
:10179000284602F0E3F900231A460321284601F007
:1017A000FAFF05A802F07AF8ADF81C4005A9284612
:1017B00002F01EF80121284601F0D2FF0122114655
:1017C000284602F073F80021284602F09DF9012115
:1017D000284601F0CBFF09B030BD000000000240F8
:1017E000000C0040F0B5002201274FF0030C0B68FD
:1017F00007FA02F52B40AB422CD1066853000CFAD5
:1018000003F4A64306600E79D0F800E09E4046EA55
:101810000E0606600E79012E01D0022E12D18668C6
:10182000A64386604E79D0F808E09E4046EA0E0650
:1018300086604668AE43466045688E799640B6B28B
:1018400035434560C568A543C560CC799C40C368F5
:101850001C43C460521C102AC9D3F0BD4B07DB0ED9
:101860009A40C90810B500EB8100016A0F249C4022
:10187000A1430162016A1143016210BD41837047B7
:101880000183704710B50A4C014607230122204608
:10189000FFF7D6F82046FFF70DF902212046FFF7A3
:1018A000A2F80028F9D02046BDE81040FFF798B80C
:1018B0000020014025489FED261ADFED261A027808
:1018C00026489FED252A274990ED000A2448092A39
:1018D000F1EE400A37D2DFE802F03605080B1013AC
:1018E000181B330080ED000A0CE080ED000A01E0D7
:1018F00080ED001AC1ED001A0EE0C0ED000A09E00B
:10190000C0ED000A81ED001A06E0C0ED000AF1E723
:1019100080ED001A81ED002AD1ED000A9FED121A28
:10192000DFED121A20EE800AC0EE010AC1ED000AB6
:1019300090ED001A81EE210A80ED000AFFF77EBDCE
:1019400080ED000AE6E780ED001ADBE75901002090
:1019500000000000DB0F49BFDB0F493F48010020BA
:1019600060010020680100200000FA4300007A4472
:1019700010B502202DED028B01F028FA00EE100ABE
:101980000320B8EEC08A01F021FADFED111A4042BF
:1019900000EE100A0F4868EE210AB8EEC01A90ED6A
:1019A000000A0D4880EE802A21EE211AD0ED000AAF
:1019B0000A48C1EE001A22EE202A80ED002A0848CB
:1019C00021EEA00A80ED000ABDEC028B10BD0000E4
:1019D0000000C8426C01002070010020FC5900206A
:1019E000185A00202DE9F04100250E4607462C46E6
:1019F00008E03846FFF746FF0544052003F02EFDBA
:101A0000641CE4B2B442F4D3B5FBF6F080B2BDE896
:101A1000F081000010B50820FFF734FFFEF77CFDD1
:101A20009FED0B1B53EC112BFEF7F3FC9FED0A1BF4
:101A300053EC112BFEF7EDFC9FED091B53EC112B22
:101A4000FEF7E7FCFEF788FD00EE100A10BD00006F
:101A5000EC51B81E85EB0940000000000000264054
:101A6000000000000000303FFEE7000070B50D4CA4
:101A70000025C4F8A4520C48016821F440310160EB
:101A8000016841F480310160C4F8A052012004F5DE
:101A9000287403F0FFFC0120606003F0FBFC65602C
:101AA00070BD000000804042000402401CB50121CE
:101AB000022001F005F94FF44070012400908DF8E8
:101AC000044000208DF8060003208DF805008DF8F5
:101AD000074069460448FFF785FE0448C0F8A44261
:101AE000C0F8A0421CBD000000040240008040423B
:101AF00070B50D4C0026C4F8A4620C48016821F4AE
:101B000040310160016841F4803101600125C4F871
:101B1000A052284604F5287403F0BCFC656001203F
:101B200003F0B8FC666070BD0080404200040240D3
:101B30002DE9F047814618480025016821F440311D
:101B4000016001680160154E2C462F464FF00108D8
:101B5000C6F8A472012003F09DFCC6F8A4826806B2
:101B6000D6F82012000E11B140F0010501E020F07E
:101B70000105012003F08EFC641CE4B2082CE7D3BD
:101B8000B9F1000F04D0FFF7B3FF2846BDE8F08796
:101B9000FFF76CFFF9E700000004024000804042BC
:101BA00070B50D46044600F01BF8204600F0B0F872
:101BB00000F05EF8284600F0ABF800F059F800F0AD
:101BC0000FF844F0010000F0A3F800F051F80120F4
:101BD000FFF7AEFF044600F02BF8204670BD000072
:101BE00070B51148016821F440310160016841F489
:101BF000803101600D4C0120C4F8A002D4F82012FD
:101C000000290FD0C4F8A40203F044FC0025C4F856
:101C1000A052D4F82002002804D1012003F03AFC9D
:101C2000C4F8A45270BD000000040240008040428D
:101C30000D4810B5016821F440310160016841F49C
:101C400080310160094C0020C4F8A402C4F8A0024D
:101C5000012004F5287403F01DFC01206060206061
:101C6000BDE8104003F016BC000402400080404272
:101C700070B512480024016821F440310160016808
:101C800001600F4D0126C5F8A062304603F002FC4A
:101C9000C5F8A46207E0641CE4B2322C03D9FFF754
:101CA000C7FF002070BD012003F0F4FBD5F820022F
:101CB0000028F0D1C5F8A402012070BD0004024044
:101CC000008040422DE9F0411D4614460F468046F3
:101CD000069EFFF765FF621CFF21C4F1080301FAAD
:101CE00002F22B445B1ED9400A43C5F108018E4025
:101CF000D2B2F1B2C4F10703D940104040EA010268
:101D00003946404600F034F80120BDE8F08100007B
:101D10002DE9F04105461448016821F44031016085
:101D2000016841F480310160104E0027C6F8A472AA
:101D30003C464FF00108E809C6F8A0026806050E07
:101D4000012003F0A7FBC6F8A482012003F0A2FB48
:101D5000C6F8A472012003F09DFB641CE4B2082CB9
:101D6000E9D3BDE8F0810000000402400080404259
:101D700070B515460E460446FFF732FF2046FFF7C2
:101D8000C7FFFFF775FF3046FFF7C2FFFFF770FF91
:101D90002846FFF7BDFFFFF76BFFFFF749FF012064
:101DA00070BD0000174830EEC00A1749D0ED070A91
:101DB000174A91ED001A70EE600A144960EE810A2C
:101DC00091ED001A41EE000A90ED061A70EE810ABC
:101DD00010EE901AC0ED060A914203DDDFED0D0A08
:101DE000C0ED060A10EE901A0B4A914203D9DFEDBE
:101DF0000B0AC0ED060A80ED070ABDEEE00A10EE00
:101E0000100A7047940100204C010020500100206E
:101E10000040834600408346004083C6004083C69E
:101E2000174830EEC00A1749D0ED0A0A174A91ED5B
:101E3000001A70EE600A144960EE810A91ED001AF2
:101E400041EE000A90ED091A70EE810A10EE901A28
:101E5000C0ED090A914203DDDFED0D0AC0ED090A6C
:101E600010EE901A0B4A914203D9DFED0B0AC0ED38
:101E7000090A80ED0A0ABDEEE00A10EE100A70476A
:101E8000940100204C0100205001002000408346B6
:101E900000408346004083C6004083C61CB5012134
:101EA000042000F00DFF2020009000208DF8040099
:101EB00003208DF8050001208DF8070069460248CF
:101EC000FFF790FC1CBD00000008024010B503F0B5
:101ED000D9F9012805D1044902480A6802608988B5
:101EE000818010BD040200200A0200201CB50121DF
:101EF000082000F0E5FE4FF46040009001208DF8CE
:101F0000040000218DF8061003218DF805100B4CFC
:101F10008DF8070069462046FFF764FC4FF48041C6
:101F20002046FFF7ADFC4FF400512046FFF7A8FC18
:101F30004FF400412046FFF7A3FC1CBD000C0240FB
:101F4000BC2801D3012210E0622801D302220CE058
:101F50002A2801D3032208E0142801D3042204E034
:101F60000A2801D3052200E006221A21D020FFF71B
:101F7000FFBE10B504464FF47A70844201D904467E
:101F800002E0042C00D20424B0FBF4F0401EC2B2E4
:101F90001921D020FFF7ECFE6008BDE81040FFF7E4
:101FA000CFBF10B580226B21D020FFF7E1FEC82003
:101FB00003F054FA00226B21D020FFF7D9FE012054
:101FC00000F03AF8002000F02EF83220FFF7D1FFA1
:101FD00000223821D020FFF7CBFE00226A21D0203A
:101FE000FFF7C6FE00222321D020FFF7C1FE80228A
:101FF0003721D020FFF7BCFE7521D020FFF7D0FDA0
:10200000682801D0012010BD01226B21D020FFF7EC
:10201000AFFE00226C21D020FFF7AAFE3220FFF78E
:10202000A8FF002010BD08B50223009004221C2147
:10203000D020FFF747FE08BD08B502230090042218
:102040001B21D020FFF73EFE08BD000008B503F0BD
:1020500053FA0D4C4FF47A7500900A21684604F04B
:10206000B9FE2068A8420ADA401C2060606820613E
:102070002089A082D4F80A00E061E089208400F081
:1020800005F800F047F8E8E7F401002070B53C21BE
:10209000D020FFF785FD04463B21D020FFF780FDCF
:1020A00004EB00201A4C3E212080D020FFF778FD61
:1020B00005463D21D020FFF773FD05EB0020608031
:1020C0004021D020FFF76CFD05463F21D020FFF7CF
:1020D00067FD05EB002000B2A4F10A01A0800968A9
:1020E000B1F57A7F12DB04F1180321881980628828
:1020F0005A8098809B1F1D88491B21805988511A3E
:1021000061809988401A00F58040A08070BD000071
:10211000FE010020D0B54421D020FFF741FD044648
:102120004321D020FFF73CFD04EB0020214C462149
:102130002080D020FFF734FD06464521D020FFF750
:102140002FFD06EB002060804821D020FFF728FDFE
:1021500006464721D020FFF723FD06EB002001B201
:10216000221FA18010684FF47A77134B134EB842A8
:1021700003DA0120186030701AE0B84207D100205D
:1021800030704FF49670186040F2E9301060094BDF
:1021900020881233188062885A8099809B1F1E887D
:1021A000801B20805888101A60809888081AA080A8
:1021B0002846D0BDF8010020340000204401002052
:1021C000FEE700002DE9FC4701210F2000F078FD1B
:1021D00001248DF80440002530208DF80650DFF8EA
:1021E00098A000908DF805508DF80740694650463C
:1021F000FFF7F8FA8DF806508DF80440DFF87C8080
:102200004FF4E0478DF8055000978DF80740694678
:102210004046FFF7E7FA8DF804408DF80650DFF8E6
:1022200060908DF8055000948DF807406946484647
:10223000FFF7D8FA8DF804408DF806508DF8055058
:102240008DF807400F4C4FF4A05600966946204683
:10225000FFF7C8FA30215046FFF710FB39464046D9
:10226000FFF70CFB01214846FFF708FB31462046EB
:10227000FFF704FBBDE8FC870000024000040240B9
:1022800000080240000C02402DE9F0418846074654
:102290008AB00121022000F02BFD0121042000F072
:1022A0000FFD394E032206213046FFF7D7FA0322ED
:1022B00007213046FFF7D2FA032208213046FFF704
:1022C000CDFA032209213046FFF7C8FA4FF47070A7
:1022D000059002208DF8180003208DF819000024C5
:1022E0008DF81A4001258DF81B5005A93046FFF7DF
:1022F00079FA264EADF81C800897ADF82450ADF859
:102300001E4007A9304601F029FC6020ADF800000E
:10231000ADF80250ADF80C406946304601F0CEFAF7
:102320006946304601F006FB6946304601F056FB2F
:102330006946304601F0A0FB0121304601F020FA49
:102340000821304601F0F0FA0821304601F03CFB4C
:102350000821304601F08AFB0821304601F0C6FB17
:102360000121304601F0F2F9084834300460001DC4
:102370000460001D0460001D04600121304601F06E
:10238000F5F90AB0BDE8F081000802400004014000
:102390007047000030B50F23C27801780125FAB1EB
:1023A000144A126801F1E02102F4E062C2F5E06231
:1023B000C2F30722C2F10404D3404278A2408478D9
:1023C0001C401443220181F80024007800F01F0112
:1023D0008D404009800000F1E020C0F8005130BD80
:1023E00001F01F0085404809800000F1E020C0F89E
:1023F000805130BD0CED00E00249084302490860FD
:10240000704700000000FA050CED00E010B4002158
:10241000084B0A46002003EBC004401CC0B26254C3
:102420008028F8D3491CC9B20829F3D310BC00F0A6
:10243000B7B800002002002010B57F2816D83F2929
:1024400014D80723A3EBD10301F00701C1F107045E
:102450000121A140064CDBB204EBC000002AC25CA3
:10246000C9B201D00A4300E08A43C25410BD000043
:10247000200200207CB50121082000F021FC01266B
:102480008DF804600024F0208DF8064000908DF84F
:1024900005408DF8074069463F48FFF7A3F9012141
:1024A000080700F019FC012000F004FC002000F0F7
:1024B0007FFC002000F0FEFB384DC5F894426420FC
:1024C00005F5257502F0CAFF2E600021AE2000F050
:1024D00029F90021D52000F025F90021502000F035
:1024E00021F90021A82000F01DF900213F2000F073
:1024F00019F90021D32000F015F90021084600F059
:1025000011F90021402000F00DF900218D2000F08C
:1025100009F90021142000F005F90021202000F025
:1025200001F90021022000F0FDF80021A12000F0B7
:10253000F9F80021C02000F0F5F80021DA2000F0C1
:10254000F1F80021122000F0EDF80021812000F0C8
:10255000E9F80021EF2000F0E5F80021D92000F093
:10256000E1F80021F12000F0DDF80021DB2000F08F
:10257000D9F80021302000F0D5F80021A42000F087
:10258000D1F80021A62000F0CDF80021AF2000F006
:10259000C9F8FFF73BFF7CBD000C024000804142C0
:1025A00070B5104E002505F1B000C0B2002100F05A
:1025B000B9F80021084600F0B5F80021102000F01D
:1025C000B1F8002406EBC4000121405D00F0AAF838
:1025D000641CE4B2802CF5D36D1CEDB2082DE2D35F
:1025E00070BD0000200200202DE9F04F203A9846EF
:1025F0000D468346894602F0FF0A00262EE0B8F118
:102600000C0F08D0174901EB0A100027845D200643
:1026100007D5099A08E014490AEB4A0001EB80004B
:10262000F3E7099890B1002229465846FFF704FFC6
:102630006D1C6006EDB2040EA5EB0901414507D102
:102640000BF101004D4600F0FF0B05E00122EBE726
:102650007F1CFFB2082FDAD3761CF6B24645CED3E4
:10266000BDE8F08F4C820008D87D00082DE9FF4FAF
:1026700081B00027DDF838B01D46924680463C46C2
:102680004FF001094FEA5B0627E0281B401EC1B24C
:102690000A2002F06FFFBAFBF0F00A21B0FBF1F262
:1026A00001FB120027B9691E8C4201DA48B10127EB
:1026B0003030C2B206FB0480C0B25B46CDF8009059
:1026C00006E006FB0480C0B25B462022CDF80090F5
:1026D0000299FFF789FF641CE4B2AC42D5D305B080
:1026E000BDE8F08FF8B516460D460446012714E004
:1026F0007A2C02D900241035EDB23A2D03D90024EA
:102700002546FFF783FE009732780C2329462046A2
:10271000FFF76AFF0834E4B2761C30780028E7D16E
:10272000F8BD000030B500230E4A012411B1C2F8F3
:10273000904201E0C2F890320021C2F89C320506B6
:1027400002D5C2F8984201E0C2F89832C2F89C4221
:102750004006491C000EC9B20829EED3C2F89042C7
:1027600030BD0000008041420020044A014611545F
:10277000401CC0B20928FAD3704700002006002090
:102780002DE9F84301250746ADF800502048002602
:102790004670ADF800501F4C80464FF6FF792DE093
:1027A000BDF80000384202D0C4F8845201E0C4F8F9
:1027B0008462102002F06EFEC4F88C520A2002F0EF
:1027C00069FEC4F88C620A2002F064FEC4F88C52E0
:1027D000102002F05FFED4F8000230B198F801102A
:1027E000BDF80020114388F80110102002F052FEBD
:1027F000BDF8001009EA4100ADF80000BDF8000086
:10280000FF28CDD9BDE8F843102002F043BE0000F8
:10281000200600200000424270B5FFF7A5FF00F03F
:1028200009F90B480B4AB0F803400A4808324480C3
:102830000020012512F8103000F101005B1E05FA9E
:1028400003F12142C0B202D01028F3D3002070BDA2
:10285000200600203C00002010B5154C0020C4F8D4
:102860008802102004F5227402F014FE0120FFF704
:1028700087FF4320FFF784FF0020FFF781FF01203F
:10288000FFF77EFF0020FFF77BFF0020FFF778FFB8
:102890000020FFF775FF0020FFF772FF0020FFF711
:1028A0006FFF01202060BDE81040102002F0F2BD53
:1028B0000000424210B5154C0020C4F888021020D8
:1028C00004F5227402F0E6FD0120FFF759FF4320D2
:1028D000FFF756FF0020FFF753FF0020FFF750FFE0
:1028E0005A20FFF74DFF5A20FFF74AFF5A20FFF703
:1028F00047FF5A20FFF744FF5A20FFF741FF01200E
:102900002060BDE81040102002F0C4BD000042422B
:102910007CB50121102000F0D3F9012400250D4ED3
:102920008DF8045000948DF8074069463046FEF754
:1029300059FF0E2000908DF804408DF806500220BB
:102940008DF805008DF8074069463046FEF74AFFCE
:102950007CBD00000010024010B5FFF75DFF00EEE7
:10296000100A26482B4BB8EE400A012280ED000ADF
:102970002348C17900EE901A2249F8EE600AC1EDB1
:10298000000A017A00EE901A1F49F8EE600AC1EDC4
:10299000000A417901EE101A1C49B8EE411A81ED86
:1029A000001A807910EE101A01EE100A1848B1F1E1
:1029B000814FB8EE411A80ED001A174801D1017815
:1029C000D1B15968002916D010EE901A134B9942D4
:1029D00011DA017800290ED111490968B1F57A7F21
:1029E00009DB10490270002008700F4908700F4978
:1029F00008700F49087010BD5A60E5E7900100208B
:102A00002006002080010020840100208801002091
:102A10008C0100203C000020540100200000EC420A
:102A2000F40100205601002055010020570100202C
:102A3000580100202DE9FC4100268DF80060012599
:102A4000ADF80450224CC4F88862224F3878FFF762
:102A500097FE7878FFF794FE02208DF800001E4F55
:102A60004FF6FF782CE0ADF804501DE0C4F88C520E
:102A70000A2002F00FFDC4F88C620A2002F00AFD61
:102A8000C4F88C52D4F8000240B19DF80000BDF8A3
:102A90000410385C08439DF800107854BDF8041009
:102AA00008EA4100ADF80400BDF80400FF28DDD9B4
:102AB000102002F0EFFC9DF80000401C8DF8000093
:102AC0009DF800000928CED3C4F88852BDE8FC81E7
:102AD000000042423C0000202006002010B500F01B
:102AE0000DF800F00BF800F009F8FFF7B5FE00F064
:102AF00027F8BDE81040FFF7DDBE000010B50F4C11
:102B00000020C4F88802102004F5227402F0C2FCF0
:102B10000120FFF735FE4220FFF732FE0020FFF7CD
:102B20002FFE0020FFF72CFE0020FFF729FE0120DA
:102B30002060BDE81040102002F0ACBC0000424212
:102B400010B5144C0020C4F88802012004F522744A
:102B5000FFF716FE4420FFF713FE0020FFF710FEDC
:102B60000120FFF70DFE0320FFF70AFE0020FFF70C
:102B700007FE0020FFF704FE0020FFF701FE002003
:102B8000FFF7FEFD01202060BDE81040102002F09C
:102B900081BC000000004242394810B49FED370A62
:102BA000D0ED000A37486FF0130370EE600AFDEEB7
:102BB000E00A10EE901AD0ED000A994230EE600A59
:102BC000BDEEC00A10EE100A02DD142900DA002161
:102BD000984202DD142800DA00202B4A2C4B2B4CA3
:102BE000126893ED000AF1EE040AA24202D130EE1F
:102BF000200A04E0274CA24203D130EE600A83EDA4
:102C0000000AB5EEC00AF1EE10FA03D29FED220AD7
:102C100083ED000A00EE101A93ED001A9FED222AB0
:102C2000F8EEC00A00EE100ADFED1E1A1B49B8EEDE
:102C3000C00A60EE810A1A4820EE020A60EEA10A7C
:102C400020EE210AF5EEC00AC1ED000AF1EE10FAFD
:102C500080ED000A07D29FED152AC1EE021A20EE80
:102C6000610A80ED000A9FED121A80EE810A81ED63
:102C7000000AD0ED000A10BCFEF7E0BB00000043E4
:102C800084010020880100209001002000003041D4
:102C900048010020000010410000000060010020F9
:102CA000680100200000003CDB0F493F0000FA43B0
:102CB00000007A44014908627047000000000E429B
:102CC000044A0029116801D0014300E081431160EA
:102CD0007047000030380240044A0029116801D0D2
:102CE000014300E08143116070470000403802401A
:102CF000044A0029116801D0014300E081431160BA
:102D00007047000044380240044A0029116801D08D
:102D1000014300E081431160704700002438024005
:102D200070B5204B1968204C11F00C0104D06610CE
:102D3000042903D0082903D004601BE0066019E0D1
:102D4000184A121F1168C1F38055116801F03F0144
:102D500015B1B6FBF1F101E0B4FBF1F114681268B2
:102D6000C4F388146143C2F30142521C5200B1FB08
:102D7000F2F1016019680F2202EA11110B4A545C4A
:102D80000168E14041601C68072505EA9424145D50
:102D900021FA04F484601B6805EA5333D25CD14005
:102DA000C16070BD083802400024F400C00000205B
:102DB000054900220A700A70012802D0042801D1B6
:102DC000052008707047000070380240002102287A
:102DD00007D003280BD004280BD005280BD00020E7
:102DE00070474FF08042506A516200B27047044A07
:102DF00002E0044A00E0044A1068116000B2704723
:102E00002404004024080040240C0040F0B54FF496
:102E1000FA66454B771032463946186803F0FBFCDA
:102E2000424D186032463946286803F0F4FC404CA5
:102E3000286032463946206803F0EDFC32463D4EAC
:102E400020603946306803F0E6FC30601B682A6871
:102E50002168A3F2DC535B426FF06304A2F2DC5200
:102E6000A1F2DC51A24202DD642A00DA0022A14272
:102E700002DD642900DA0021A34202DD642B00DABE
:102E8000002300EE101A2C48B8EEC00AD0ED000A5C
:102E900030EE800ABDEEC00A10EE100A002800DAFB
:102EA000002000EE102A01EE900A01EE103AB8EE72
:102EB000C00AF8EEE11AB8EEC11A204A204920EE05
:102EC000212ADFED201A82EE210A9FED1F2A21EE32
:102ED000022A82EE211A82ED000AB5EEC00AF1EE56
:102EE00010FA81ED001A05D280EEA12A61EE420AA5
:102EF000C1ED000ADFED150A154B80EE201A82EDB8
:102F0000001A187838B19FED130A401E82ED000AAE
:102F100081ED000A1870D1ED000A92ED000ABDE8BB
:102F2000F040FEF78BBA0000780000207C00002003
:102F30008000002084000020480100206001002063
:102F4000680100200000FA43DB0F493F00007A448B
:102F500094010020000000000E4A82EC020AC2E93F
:102F600002018900414301EE901A0B4882ED041AD8
:102F7000F8EEE11AC0ED001ADFED081A084821EE5C
:102F8000211A80ED001A074880ED000A0648C0EDBE
:102F9000000A70476C5A00206C010020DB0F49408A
:102FA00070010020740100207801002010B5354C1C
:102FB0004FF4E6700A2120600C20FEF713FD216813
:102FC000314B90FBF1F0C0B218700A2802D90A20E8
:102FD000187010BDDFED2D2A9FED2D2A4FF4FA74E5
:102FE00048B9B4EE001A21461B20F0EE420AB0EEBA
:102FF000620AFFF7B1FF1878012809D1B4EE001A70
:1030000021463320F0EE420AB0EE620AFFF7A4FF39
:103010001878DFED202A9FED203A022809D1B0EE82
:10302000621A21461220F0EE420AB0EE430AFFF780
:1030300093FF1878032809D1B0EE621A21462F2099
:10304000F0EE420AB0EE430AFFF786FF1878042834
:1030500009D1B0EE621A21461220F0EE420AB0EE1B
:10306000430AFFF779FF18780528B2D12146BDE859
:103070001040B0EE621A2F20F0EE420AB0EE430A82
:10308000FFF76ABF5C01002045010020B072A83E36
:1030900000000000F6285C3E21B0123FF0B50E465D
:1030A000054601218BB00804FFF722FE01210846E6
:1030B000FFF706FE02208DF824000420089003206C
:1030C0008DF825001E4F00248DF8264008A93846AB
:1030D000FEF788FB032202213846FEF7BFFBADF85E
:1030E00014600695174E0125ADF81C50ADF816403A
:1030F00005A9304600F032FD6020ADF80000ADF8C3
:1031000002500294ADF80C40ADF8104069463046CC
:1031100000F0D4FB0821304600F006FC01213046C7
:1031200000F014FB0121304600F020FB40F2DC509F
:1031300070630121304600F023FB0BB0F0BD0000AE
:1031400000000240004001400CB5002227490092D7
:103150000192086840F4803008604FF4A04308688A
:1031600000F4003001900098401C0090019810B9C4
:1031700000989842F3D10868800334D5012001906B
:103180001A484030026842F08052026018480268D3
:1031900042F440420260154808300268026002684A
:1031A00042F400420260026842F4A0520260031F2F
:1031B000104A1A600A6842F080720A600A68920136
:1031C000FCD50D4940F205720A60016821F0030147
:1031D0000160016841F0020101600168C1F38101F1
:1031E0000229FAD10CBD01920CBD0000003802404A
:1031F0000070004008544007003C02402DE9F047B1
:103200000025174C012690460F46002804DAC4F822
:10321000B052C4F8B46203E0C4F8B062C4F8B45267
:1032200002F0A4F9DFF83C900146484600F06AFC41
:103230000D48002F04DDC4F8B852C0F8806203E0E6
:10324000C4F8B862C0F88052384602F08FF90146DF
:10325000484600F055FC0549C1F83480BDE8F087C8
:103260000080404200040140000041420040014013
:103270004FF0E0210428086903D020F00400086121
:10328000704740F00400FAE710B504F049FB01284C
:1032900003D0BDE8104004F037B810BD124810B597
:1032A000016841F4700101601048016841F00101BA
:1032B00001600E4A00210832116002680C4B1A406E
:1032C0000260031D0B4A1A60026822F48022026029
:1032D00006480C300160FFF737FF03494FF00060EC
:1032E0008039086010BD000088ED00E00038024021
:1032F000FFFFF6FE1030002470B5048C24F00104AA
:103300000484058B048C4FF6FF7606EA03131343FF
:1033100025F0F3052B4324F00A020A4342F0010191
:103320000383018470BDF0B5048C24F01004048480
:10333000078B068C4FF6FF7404EA011527F47347D8
:1033400004EA0331394304EA02220A4326F0A001C9
:10335000294341F0100102830184F0BD2DE9F047BB
:103360008D4800248169B1F5C86F11DD8B490A7859
:1033700072B98B4A1268B2F57A7F09DB01220A70B2
:1033800088490C7088490C7088490C7088490C7009
:1033900080460078874D000642F20F764FF4FA77A8
:1033A0002DD40221284600F017FA40B30221284606
:1033B00000F0D9F998F80000400628463DD500F005
:1033C00003FA80B2A8F80600B8F804104246884212
:1033D00001D2566300E05463401A516B08445061B7
:1033E000516A401A00D54042B84200DD516150692F
:1033F000506288F800400021284600F08FFA98F8C3
:10340000010000063AD40421284600F0E5F9A8B3EB
:103410000421284600F0A7F998F801004006284644
:103420004AD500F0D3F980B2A8F80A00B8F808101D
:10343000424688420ED296630DE000F0C5F901467F
:10344000A8F8041098F8001041F0400188F8001026
:103450000221D1E79463401A916B08449061916A0C
:10346000401A00D54042B84200DD916190699062F7
:1034700088F801400021284600F09CFA98F80200E4
:1034800000063AD40821284600F0A6F9A8B308217E
:10349000284600F068F998F80200400628464BD507
:1034A00000F096F980B2A8F80E00B8F80C10424669
:1034B00088420ED2D6630DE000F088F90146A8F8E4
:1034C000081098F8011041F0400188F8011002211D
:1034D000D1E7D463401AD16B0844D061D16A401A55
:1034E00000D54042B84200DDD161D069D06288F891
:1034F00002400021284600F0AFFA98F80300C146C8
:10350000000647D41021284600F066F9002841D073
:103510001021A846284600F026F999F803004D46E8
:1035200040062BD5404600F055F980B26882298AC2
:1035300088420ED22E640DE000F04AF90146A8F848
:103540000C1098F8021041F0400188F80210022196
:10355000D0E72C64401A296C08442862296B401A71
:1035600000D54042B84200DD2962286A2863EC7029
:1035700000214046BDE8F04700F0AEBA4446404660
:1035800000F028F92882E878022140F04000E87035
:103590002046EFE7BDE8F0876400002056010020D8
:1035A000F4010020550100205401002057010020A3
:1035B0005801002000000140F0B50D4606460121EB
:1035C00089B00846FFF794FB01211020FFF778FB34
:1035D0004FF4D440022203908DF8102003208DF880
:1035E00011000024404F8DF812408DF8132003A9DC
:1035F0003846FEF7F7F8012209213846FEF72EF982
:1036000001220B213846FEF729F901220D21384607
:10361000FEF724F901220E213846FEF71FF906961F
:10362000324EADF81450ADF81C40ADF8164005A967
:10363000304600F093FA01250F20ADF80040ADF8B8
:103640000450ADF80800ADF80240ADF806406946F8
:10365000304600F0CDF80420ADF80000ADF804507D
:10366000ADF80240ADF80640ADF808406946304676
:1036700000F0BEF80820ADF80000ADF80450ADF839
:103680000240ADF80640ADF808406946304600F00B
:10369000AFF80C20ADF80000ADF80450ADF80240D2
:1036A000ADF80640ADF808406946304600F0A0F895
:1036B0001B208DF820008DF821408DF822408DF8D8
:1036C000235008A8FEF766FE01221E21304600F0B6
:1036D000EDF80121304600F053F80121304600F0AA
:1036E00045F809B0F0BD00000010024000000140A4
:1036F0000248018A21F00101018270470000014067
:103700004FF08040018A018A21F001010182704757
:1037100003480188018821F0010101807047000001
:103720001004004003480188018821F00101018054
:10373000704700001008004003480188018821F00C
:103740000101018070470000100C00400029018831
:1037500002D041F0800101E021F08001018070473A
:10376000C94301827047C94301827047002901881B
:1037700002D041F0010101E021F001010180704718
:10378000002930F8441F02D041F4004101E0C1F3A8
:103790000E010180704770B50589048B068C25F0F9
:1037A00007050D434FF6FC410C4040F201110C435C
:1037B0004FF6FF7101EA031126F02206114331434F
:1037C00005810483018470BD406B7047806B704736
:1037D000C06B7047006C704702460020138A9289C4
:1037E0000B4202EA010202D0002A00D001207047F9
:1037F0002DE9F0410C460E884988A28823890546A8
:1038000016B3042E28D0082E2E8C4FF6FF702BD026
:1038100026F480562E84AF8B2E8C00EA022200EA1A
:10382000013127F473473A4300EA0330104326F48A
:1038300020420A4342F48051A8832984E188284623
:10384000BDE8F04100F07EB9FFF756FDE18828465B
:10385000BDE8F04100F05AB9FFF765FDE188284660
:10386000BDE8F04100F05AB926F480762E84AF8B83
:103870002E8C00EA012100EA0310104327F0F30721
:10388000384326F420620A4342F48071A8832984D5
:10389000E1882846BDE8F04100F04CB900210180E4
:1038A000418001228280C18001817047002A828983
:1038B00001D00A4300E08A438281704730B5028C10
:1038C00022F001020284028C8388048B22F002021F
:1038D00024F073050C882C438D8915434A882A43AC
:1038E0000C4DA84202D00C4DA8420DD122F0080583
:1038F000CA8923F440732A4322F004058A882A43A4
:103900000D8A1D434B8A2B4383800483896841635E
:10391000028430BD0000014000040140028C22F00E
:1039200002020A4302847047028B22F008020A4313
:103930000283704770B5028C22F010020284028C60
:103940008388048B0D8824F4E6464FF6FF7404EA5E
:10395000052535438E8922F0200204EA0616164317
:103960004A8804EA02123243104EB04202D0104E8E
:10397000B04215D122F08006CA8923F4406304EADC
:103980000212324322F040068A8804EA02123243CD
:103990000E8A04EA86061E434B8A04EA83033343F5
:1039A0008380058389688163028470BD00000140C3
:1039B00000040140028C4FF6FF7322F0200203EA5C
:1039C0000111114301847047028B4FF6FF7322F4FB
:1039D000006203EA012111430183704770B5028C34
:1039E00022F480720284028C8388848B0D8824F0F8
:1039F000730425438E894FF6FF7422F4007204EAA3
:103A0000062616434A8804EA02223243104EB04288
:103A100002D0104EB04215D122F40066CA8923F4B8
:103A2000405304EA0222324322F480668A8804EA80
:103A3000022232430E8A04EA06161E434B8A04EA27
:103A400003133343838085838968C163028470BD17
:103A50000000014000040140028C4FF6FF7322F485
:103A6000007203EA0121114301847047828B22F026
:103A700008020A438283704770B5028C22F4805298
:103A80000284058C8288838B0C8823F4E6464FF6EB
:103A9000FF7303EA0424344325F400568D8903EAB6
:103AA000053535434E8803EA06362E43084DA842B5
:103AB00002D0084DA84205D122F480450A8A03EAC3
:103AC00082122A438280848389680164068470BDDF
:103AD0000000014000040140028C4FF6FF7322F405
:103AE000005203EA0131114301847047828B4FF683
:103AF000FF7322F4006203EA0121114381837047BE
:103B0000C16370470164704741627047028B22F0C5
:103B10000C020283028B0A4302837047028B22F459
:103B200040620283028B4FF6FF7303EA01210A43CE
:103B300002837047828B22F00C028283828B0A43BD
:103B400082837047828B22F440628283828B4FF69D
:103B5000FF7303EA01210A438283704730B502886C
:103B6000164C174DA0420DD0A8420BD0B0F1804F9B
:103B700008D0144B984205D0134B984202D0134BF7
:103B8000984203D122F070034A881A43104B98429E
:103B900006D0104B984203D022F440730A891A438E
:103BA00002804A68C2620A880285A04201D0A84207
:103BB00001D1897A01860121818230BD0000014056
:103BC000000401400004004000080040000C0040D8
:103BD00000100040001400404FF0FF314160002110
:103BE000018001814180817270470000142809DB47
:103BF0001448D0F8100228B113480078012801D0E9
:103C000000207047114A012000211160121F11602D
:103C1000121F1160121F11600D4AC2F8B412C2F8CF
:103C2000B0120C4BC3F88012C2F8B8120A4AC2F89C
:103C3000A812C2F8B012094AC2F89412C2F890123F
:103C4000704700000000424244010020400401404F
:103C5000008040420000414200804142000040425A
:103C60002DE9F04140F225512DED048B804800F004
:103C700039FA002870D07E48001D00887D49096807
:103C8000B1F57A7F68DB012100247B4D41280ED1FC
:103C90002A79412A0BD1794A137843B9784B1C70A1
:103CA000784B1C701170784A1470784A1470C3B243
:103CB000774A784FDFF8E0C1784E2B714B2808D057
:103CC000492808D04A2806D036782EB1012E0BD0CC
:103CD0001EE031700CE03470A0F14106072E26D9A9
:103CE000082814DC137013E0432809D047280BD0B0
:103CF0003C708CF80040412819D0452817D006E0C8
:103D00003C708CF8001002E039708CF800401470A0
:103D10009FED630A634A9FED649A644E58280AD067
:103D200059280DD07B2818D07D281CD00EE0A0F19A
:103D300040061670ECE7D6ED000A30EE800A03E08C
:103D4000D6ED000A30EEC00A86ED000A6878012838
:103D500004D0022809D07CE084E06970A87813546C
:103D6000401CA87075E002206870D078502806D0FA
:103D70005078232864D0A878E87090462AE04C4810
:103D800001705DE0A978081AFCF7B5FB41EC110B56
:103D90009FED480B00F08CFAEF78B0EE408A08EB0C
:103DA0000700F0EE608A10F8010C3038FCF7A3FB36
:103DB00053EC182BFCF72DFB41EC180BA868FCF713
:103DC000B8FB53EC182BFCF77DFAFCF7C5FB7F1E04
:103DD000A860EF70E8780428D4D298F80100303851
:103DE00007282DD2DFE800F004090D111B1F250064
:103DF00095ED020A86ED000A22E095ED020A2F48B1
:103E00001CE095ED020A2E4818E095ED020ADFED60
:103E10002D0A2D4880EE201A80ED001A10E095ED55
:103E2000020A2A480AE095ED020A2948BDEEC00AB6
:103E300004E095ED020A2748BDEEC00A80ED000AB5
:103E40006C70AC70EC7085ED029A32211548FCF76D
:103E50002EFA96ED000AB5EEC00AF1EE10FA01D284
:103E600086ED009A0020BDEC048BBDE8F0810000D7
:103E7000004C0040F4010020A80000205501002063
:103E80005401002056010020570100205801002055
:103E9000590100207C0100207D0100207E010020CE
:103EA0000000C8422C06002000000000480100204D
:103EB0007F01002000000000000024404C01002091
:103EC0005001002000007A44D0010020CC010020E5
:103ED0009C010020A001002070B52A4C40F2255121
:103EE000204600F0FFF8E8B3204600F089F9C1B29F
:103EF00025480068B0F57A7F42DB254A234C00252F
:103F000010787B29215400D028B1401CC0B2107019
:103F10000B2802D034E0157032E01570A07A7D28AD
:103F20002ED100210920FDF76BFA617A884227D152
:103F300018481C490570184805701848057018483D
:103F4000057001200870184805702179E07800F0AC
:103F50005DF9164880ED000AA179607900F056F904
:103F6000134800E00CE080ED000A217AE07900F0CF
:103F70004DF9217AE07900F049F90E4880ED000A08
:103F8000002070BD00100140A40100209006002018
:103F9000A8000020540100205601002055010020F7
:103FA0005701002058010020D401002060010020AA
:103FB000640100206801002000B5054B0022985CD8
:103FC00002F036FD521CD2B2182AF8D300BD000010
:103FD0005E06002070B52A4C40F22551204600F0C4
:103FE00081F8E0B3204600F00BF9C1B22548006823
:103FF000B0F57A7F41DB254A234C002550797B2997
:10400000215400D028B1401CC0B250710B2802D0FE
:1040100033E0557131E05571A07A7D282DD1002112
:104020000920FDF7EDF9617A884226D1184805701C
:10403000184805701848057018480570184805702C
:10404000184805702179E07800F0E0F8164880ED16
:10405000000AA179607900F0D9F8144800E00CE07A
:1040600080ED000A217AE07900F0D0F8217AE07939
:1040700000F0CCF80E4880ED000A002070BD000072
:1040800000480040A401002090060020A800002065
:104090005401002056010020550100205701002046
:1040A00058010020D401002060010020640100209C
:1040B0006801002000B5054B0022985C02F0C0FCAE
:1040C000521CD2B2182AF8D300BD00005E060020B0
:1040D0000029818902D041F4005101E021F400510E
:1040E0008181704770B501F01F0501260024C1F3DE
:1040F000421306FA05F2012B0FD0022B0FD0838A50
:104100004FEA11210088134206FA01F600EA060080
:1041100001D000B10124204670BD8389F0E7038AF5
:10412000EEE710B5C1F3421301F01F040121A140D5
:10413000012B07D0022B07D01430002A026805D0CB
:104140000A4304E00C30F8E71030F6E78A430260D7
:1041500010BD00007FB50446008A0D46C98820F4D2
:10416000405001432182A08941F20C618843A98813
:104170002A8911436A8902431143A181A08A20F44C
:104180004071A8890843A0826846FEF7C9FD1A4815
:10419000844202D01948844201D1039800E0029879
:1041A000A189090400EBC00101EB0010296801D5C9
:1041B000490000E08900B0FBF1F06422B0FBF2F1AD
:1041C00009010B096FF018056B4300EB8300A3890D
:1041D0001D044FF0320306D503EBC000B0FBF2F034
:1041E00000F0070005E003EB0010B0FBF2F000F078
:1041F0000F00084320817FBD0010014000140140E2
:104200008088C0F308007047FEE7000070B501EB3E
:10421000002004B24FF47A7594FBF5F005FB1040D2
:104220002DED028BFCF767F99FED0B1B53EC112B67
:10423000FCF7EFF841EC180B94FBF5F0FCF75BF999
:1042400053EC182BFCF73EF8FCF786F9BDEC028B1B
:1042500000EE100A70BD0000FCA9F1D24D62503F83
:104260000FB4054B10B503A9044A029800F02EFFC5
:1042700010BC5DF814FB0000E1540008BC000020F5
:1042800003B401984100009850EAC12018BF0420EF
:104290004A0D18BF40F0010040F2FF72B2EB515FCF
:1042A00008BF40F00200012808BF052002B0704797
:1042B0002DE9F04D2DED040B2DED0E8B96B0DDE9C3
:1042C0002550279CDDF890A025F0004624F00048FA
:1042D000BAF1000F14BF0121002101EB4502FC4996
:1042E00053184A1093422AD3002814BF01230023F5
:1042F00003EB44030B44F7498B4220D358EA0001F7
:104300009FEDF59B76D0DFF8D8B35D4503D1BAF1C8
:10431000000F05D188E0BAF1000F08BF002100D0DE
:10432000012101EB450111F5001F08D8002814BF39
:104330000121002101EB440111F5001F0BD99DED76
:10434000261B9DED240B16B0BDEC0E8B04B0BDE812
:10435000F04D00F069BE0027002DBCBFE149884543
:1043600021DAE1498845A8BF02271CDAC3451ADCD7
:10437000DE4901EB2851142908DDC1F1340220FA8D
:1043800002F101FA02F282420DD108E058B9C1F1FE
:10439000140228FA02F101FA02F2424503D101F0B7
:1043A0000101C1F1020756EA0A0124D1002C22DAE8
:1043B000002D18BF022F01D0012F0AD0022000F0DB
:1043C0007FFE16B0BDEC0E8B04B0BDE8F04D00F0E2
:1043D00013BE022000F074FE00F00EFE51EC100B34
:1043E00081F0004141EC100B16B0BDEC0E8B04B017
:1043F000BDE8F08D18E09FEDBEAB9FEDBF8B0028B0
:1044000071D1B848804522D105F1804010F5801067
:1044100008BFBAF1000F07D0B3450ADC002CA8BFD3
:104420009DED260BE0DA0DE0B0EE490AF0EE690AE8
:10443000DAE7002C06DA9DED260B51EC100B81F02B
:1044400000416FE0AE48784490ED000BCCE7D845D2
:104450004DD1002C48DA2EB186423AD1BAF1000F84
:1044600042D126E0BAF1000F13D0022000F028FE5E
:1044700000F0F6FD8DED020B9DED240B8DED000B94
:1044800010EE900A039961F31E0003909DED020B5C
:10449000AAE78DED02AB9DED240B1AEE901A10EEFB
:1044A000900A8DED000B61F31E0003909DED020B51
:1044B0009AE78DED028B9DED240B18EE901A10EE0D
:1044C000900A8DED000B61F31E0003909DED020B31
:1044D0008AE709DA9DED240B51EC190B53EC102BF4
:1044E000FCF721F91EE020E09DED240B7CE78642DD
:1044F0001BDAB4F1804F0DD0A4F10050B0F1FF50A1
:1045000013D1002D11DB9DED240B51EC100B02F0AB
:1045100075F807E09DED240B53EC102B51EC100BBC
:1045200000F0C2BC41EC100B5EE79DED240B51EC9A
:10453000100B00F0C9FFBAF1000FCDE90E0142D116
:104540009FED710B46B3A6F1E040B0F17F600CD057
:104550005E4538D1002D00DAA7B3022F0CBF012031
:104560004FF0FF30FBF7C7FFDCE7002D01DD002C2B
:104570000DDA002D01DD002C1FDB002D16DA002CDA
:1045800014DB012F08BF9FED620B3FF42DAFB0EE9F
:104590004A0AF0EE6A0A27E7022F18BF002D0CD056
:1045A000012F0AD1002DFFF61FAF06E0002DB8BF86
:1045B000002C08DA012F3FF417AFB0EE480AF0EEF6
:1045C000680A11E71BE0012000EBE57050EA0701E3
:1045D00015D0791EB0EE498AF0EE698A084308BF0B
:1045E0009FED4D8B4E480025804570DD4D494E486E
:1045F000884514DDB0420DDB002C19DB2FE00120D3
:1046000000F05EFD16B0BDEC0E8B04B0BDE8F04DC1
:1046100000F016BDB34502DC002C09DC1FE0864229
:1046200002DA002C1BDA03E05E452BDD002C16DDE0
:10463000022000F045FD00F013FD8DED020B53EC60
:104640001A2B51EC180BFBF7E4FECDE9000103999E
:10465000019861F31E0003909DED020BC4E6022059
:1046600000F02EFD00F00CFD10EE901A18EE900AEE
:104670008DED020B8DED008B61F31E0003909DED1F
:10468000020BB1E69DED0E0B53EC192B51EC100B08
:10469000FBF7B9FE9FED260BCDE9080153EC102B7B
:1046A0009DED080B51EC100BFBF7B3FE9FED221BA9
:1046B00053EC112BFBF7AAFE9DED081B53EC112BBD
:1046C000FBF7A7FE9FED1E1B53EC112B3CE08CE08B
:1046D000FFFF1F00FFFF0F00000000000000F03F81
:1046E0000000F03F0000F07F0000404301FCFFFFAE
:1046F000000000000000F07F00000000000000004B
:10470000BE4E00000000000000000000000000801D
:10471000000000000000F0FF000000000000F0BFFB
:104720000000E0410000F043FFFFEF3F0000000009
:10473000000000000000D03F555555555555D53F58
:10474000000000000000E03FFBF760FE9DED080B5D
:1047500041EC1A0B53EC102B51EC100BFBF759FEEC
:1047600053EC1A2BFBF755FE41EC1A0B9FEDFE0B99
:1047700053EC102B9DED080B51EC100BFBF749FE91
:1047800041EC1B0B9FEDFA0B51EC1A0B53EC102B69
:10479000FBF73FFE41EC1A0B9FEDF70B53EC102B90
:1047A0009DED080B51EC100BFBF733FE53EC1A2B6D
:1047B000FBF729FE41EC1A0B51EC1B0B53EC1A2BA7
:1047C000FBF780FD0690CDE906519DED060B53ECFD
:1047D0001B2B51EC100BFBF716FE53EC1A2BFBF7BF
:1047E00015FE41EC100B00F0A1B90020B6F5801FBA
:1047F0000EDA9FEDE30B53EC102B9DED0E0B51ECFD
:10480000100BFBF706FECDE90E016FF034000E46EB
:1048100000EB2650A0F2FF37C6F31300DA4940F050
:104820007F6646F040568842D8BF002408DDD7494D
:104830008142C8BF012403DC0024A6F580167F1C3A
:10484000D348784400EBC4000F9690ED00CB9DED6B
:104850000E0B53EC1C2B51EC100BFBF7D4FD9DED14
:104860000E0B41EC1B0B53EC1C2B51EC100BFBF70C
:1048700029FD41EC100B51EC190B53EC102BFBF7FD
:1048800052FF41EC1D0B51EC1B0B53EC1D2BFBF7A6
:10489000C0FD41EC1A0BBF488DED10AB784410956C
:1048A00090ED000B4FF0005040EA660000EB8440B2
:1048B0008DED080B00F5002009909DED080B53ECE1
:1048C0001C2B51EC100BFBF79EFD9DED0E1B53ECCA
:1048D000112BFBF79BFD41EC100B53EC102B9DEDC6
:1048E000100B51EC100BFBF794FD9DED080B41EC08
:1048F0001C0B53EC102B9DED100B51EC100BFBF728
:1049000088FD53EC1B2BFBF781FD53EC1C2BFBF7B5
:104910007AFD53EC1D2BFBF77CFD41EC1C0B53EC9B
:104920001A2B51EC1A0BFBF774FD41EC1B0B9A4848
:104930000621B0EE4B0AF0EE6B0A784400F0E0FA84
:10494000B0EE401AF0EE601AB0EE41DAF0EE61DA45
:1049500053EC1B2B51EC1B0BFBF75BFD53EC1D2B9E
:10496000FBF757FD9DED100B41EC1B0B53EC1A2B85
:1049700051EC100BFBF7A6FC53EC1C2BFBF749FD8D
:1049800053EC1B2BFBF79EFC9DED100B41EC1B0B1E
:1049900053EC102B51EC100BFBF73BFD41EC1D0BC6
:1049A0009FED7FEB53EC1E2BFBF78CFC53EC1B2B8A
:1049B000FBF788FC0890CDE908519DED080B53ECFE
:1049C0001E2B51EC100BFBF71EFD53EC1D2BFBF7C0
:1049D0001AFD53EC1B2BFBF719FD9DED080B41EC69
:1049E0001D0B53EC102B9DED100B51EC100BFBF736
:1049F00010FD41EC1B0B53EC1A2B51EC1D0BFBF77C
:104A000008FD9DED080B41EC1A0B53EC102B51ECFB
:104A10001C0BFBF7FEFC53EC1A2BFBF753FC41EC91
:104A20001A0B51EC1B0B53EC1A2BFBF74BFC0C90A5
:104A3000CDE90C519DED0C0B53EC1B2B51EC100BE5
:104A4000FBF7E1FC53EC1A2BFBF7E0FC41EC1B0BF2
:104A50009FED550B53EC102B9DED0C0B51EC100BF7
:104A6000FBF7D7FC41EC1A0B9FED510B51EC1B0BE4
:104A700053EC102BFBF7CDFC41EC1B0B9FED4E0BC9
:104A800053EC102B9DED0C0B51EC100BFBF7C1FC04
:104A900053EC1B2BFBF716FC41EC100B48487844F9
:104AA00000EBC40090ED001B51EC100B53EC112BEC
:104AB000FBF708FC41EC1B0B3846FBF71CFDCDE96E
:104AC000080153EC1B2B51EC1A0BFBF7FBFB41ECE1
:104AD000100B3C48784400EBC40090ED00CB51EC47
:104AE000100B53EC1C2BFBF7EDFB9DED081B53EC5F
:104AF000112BFBF7E7FB0690CDE906519DED080B66
:104B000053EC102B9DED060B51EC100BFBF77BFCCF
:104B100053EC1C2BFBF777FC53EC1A2BFBF773FCC5
:104B200053EC1B2BFBF772FC41EC100B9DED261B8D
:104B300053EC102B8DED001B00959DED260B51ECD9
:104B4000100BFBF766FC9DED000B41EC1A0B53ECD0
:104B5000102B9DED260B51EC100BFBF754FC9DED3B
:104B6000061B53EC112B2FE0000000604715F73FA8
:104B7000FE822B654715F73F44DF5DF80BAE543ED0
:104B800000000000000040438E9803007AB60B003E
:104B90003A4A0000684A0000724900000000000024
:104BA0000000000000000840000000E009C7EE3FE0
:104BB000FD033ADC09C7EE3FF5015B14E02F3EBE72
:104BC000FE470000B8470000FBF723FC53EC1A2B0C
:104BD000FBF778FB9DED060B41EC1A0B53EC102B09
:104BE0009DED000B51EC100BFBF713FCCDE90C0114
:104BF0009DED0C0B51EC1A0B53EC102BFBF762FBE9
:104C0000CDE902010C46AA498C422FDB611A084308
:104C100018D19DED0C0B53EC102B9DED020B51ECBC
:104C2000100BFBF7F0FB41EC1B0B9FEDA30B51ECC2
:104C30001A0B53EC102BFBF745FB53EC1B2BFBF72C
:104C4000F9FD2DD2022000F03BFA00F009FA10EE37
:104C5000901A18EE900A8DED020B8DED008B61F32A
:104C60001E0003909DED020BFFF7BEBB944A24F09B
:104C70000041914214D39349214408437FF4EFAC9F
:104C80009DED0C0B53EC102B9DED020B51EC100B1A
:104C9000FBF7B9FB53EC1A2BFBF7CCFD7FF6DFAC2F
:104CA00024F000408849894A002601EB20518242C5
:104CB0002BDA481C4FF4801121FA00F02044844A7A
:104CC000C0F30A517A44A1F2FF3192ED000B814A00
:104CD0008DED080BCA4020EA0202C0F3130040F435
:104CE0008010C1F1140120FA01F60992002CB8BF1E
:104CF00076429DED080B53EC102B9DED0C0B51EC07
:104D0000100BFBF780FBCDE90C019DED0C0B51EC7A
:104D10001A0B53EC102BFBF7D5FA9FED6F0B089095
:104D2000CDE9085153EC102B9DED080B51EC100B05
:104D3000FBF76FFB41EC1B0B9FED690B53EC102B4A
:104D40009DED080B51EC100BFBF763FB9DED0C0B7D
:104D500041EC1C0B53EC102B9DED080B51EC100B90
:104D6000FBF751FB53EC1A2BFBF750FB9FED5E1B3F
:104D700053EC112BFBF74DFB53EC1C2BFBF7A2FA6A
:104D800041EC1A0B51EC1B0B53EC1A2BFBF79AFA64
:104D9000CDE902019DED020B53EC1B2B51EC100BE6
:104DA000FBF731FB53EC1A2BFBF730FB9DED020BAD
:104DB00041EC1A0B53EC102B51EC100BFBF729FBB9
:104DC000CDE908014A489DED080B0521784400F023
:104DD00097F89DED081B51EC100B53EC112BFBF7D2
:104DE00018FB9DED021B53EC112BFBF70FFBCDE9DC
:104DF00006019DED020B53EC1A2B51EC100BFBF747
:104E000008FB53EC1A2BFBF75DFA9FED3B0B41ECD3
:104E10001A0B53EC102B9DED060B51EC100BFBF70E
:104E2000F2FA9DED060B41EC1B0B53EC102B9DEDA4
:104E3000020B51EC100BFBF7ECFA53EC1B2BFBF7BE
:104E400072FC53EC1A2BFBF7DEFA9DED021B53ECC0
:104E5000112BFBF7D8FA53EC192BFBF7D7FACDE956
:104E6000020101EB065001150029C8BF039015DCB3
:104E70009DED020B324651EC100BFBF7C3FCFFF724
:104E8000FFF9042808BF00F0FBF832469DED020B45
:104E900051EC100BFBF7B6FCCDE902019DED020BC6
:104EA00051EC180B53EC102BFBF7B3FAFFF73ABB9E
:104EB0000000904000000000FE822B654715973CE3
:104EC00000CC904000346F3F01FCFFFF0000E03F4A
:104ED00040460000FFFF0F0000000000432EE63FA9
:104EE000396CA80C615C20BEEF39FAFE422EE63F19
:104EF000104500000000000000000000000000401D
:104F000070B504462DED028B4D1E00EBC500B0EED2
:104F1000408AF0EE608A90ED000B35F0060017D065
:104F200053EC182B51EC100BFBF773FA41EC100B00
:104F30006D1E04EBC50090ED001B51EC100B53EC03
:104F4000112BFBF7BFF941EC100B35F00600E7D150
:104F5000022D36D0042D1CD0062D1CBFBDEC028BBB
:104F600070BD53EC182B51EC100BFBF752FA94ED7B
:104F70000A1B53EC112BFBF7A5F953EC182BFBF78D
:104F800048FA94ED081B53EC112BFBF79BF941EC0D
:104F9000100B53EC182B51EC100BFBF73AFA94ED75
:104FA000061B53EC112BFBF78DF953EC182BFBF779
:104FB00030FA94ED040B53EC102BFBF783F941EC22
:104FC000100B53EC182B51EC100BFBF722FA94ED5D
:104FD000021B53EC112BFBF775F953EC182BFBF765
:104FE00018FA94ED001B53EC112BFBF76BF9BDEC99
:104FF000028B41EC100B70BD9FED070B10B553EC0D
:10500000102B9FED070B51EC100BFBF78CFB41ECC9
:10501000100B10BD000000000000000000000000A8
:10502000000000000000F03F10B553EC112B51ECD4
:10503000100BFBF747F941EC100B10BD000000000E
:105040009FED050B10B553EC102B51EC100BFBF73B
:105050006AFB41EC100B10BD0000000000000000D6
:105060009FED050B10B553EC102B51EC100BFBF71B
:10507000D0F941EC100B10BD0000000000000070E2
:105080009FED050B10B553EC102B51EC100BFBF7FB
:10509000C0F941EC100B10BD000000000000001032
:1050A00002E008C8121F08C1002AFAD170477047F1
:1050B000002001E001C1121F002AFBD1704700004F
:1050C00001490860704700001C0200202DE9FF4FD5
:1050D0008BB09A460F460546002606E025280BD0E1
:1050E00052460D9990476D1C761C28780028F5D102
:1050F0000FB03046BDE8F08F0024A0460122604981
:1051000000E0044315F8013F203B02FA03F0084297
:10511000F7D128782E2817D115F8010F44F0040490
:105120002A280ED06FF02F022878A0F1300109292B
:105130000AD808EB880102EB410100EB01086D1C65
:10514000F2E757F8048B6D1C287869283ED006DCFE
:105150000028CDD063280BD0642804D136E0732812
:1051600010D075284BD052460D999047761C85E09B
:1051700017F8040B8DF8000000208DF80100E946B7
:10518000012003E057F8049B4FF0FF3061074FF018
:10519000000401D40AE0641C44450DDA8442FADBC1
:1051A00019F804100029F6D106E0641C8442FCDBE7
:1051B00019F804100029F8D1264404E019F8010B6D
:1051C00052460D999047641EF8D257E001CF4FF038
:1051D0000A0B002802DA40422D2102E0210504D505
:1051E0002B218DF82410012103E0E10705D02021B7
:1051F000F7E70DF1200908910CE00021F9E701CF54
:105200004FF00A0BF9E75946FBF7C2F901F13002FA
:1052100009F8012D0028F6D1ADEB090000F1200BB3
:10522000600701D44FF00108D84502DDA8EB0B0060
:1052300000E000208046002406E009A85246005DF8
:105240000D999047641C761C08988442F5DB04E0B5
:10525000302052460D999047761CB8F10001A8F114
:105260000108F5DC05E019F8010B52460D9990474D
:10527000761CBBF10001ABF1010BF4DC6D1C34E7D3
:105280000928010009480A49027812B1D1F814220C
:1052900022B1D1F81412012904D005E000210170D7
:1052A000012070470121017000207047200000207C
:1052B0000000414208B500F01FF900903221684615
:1052C00001F088FD00F008F8FEF776FEFEF7F2FE2A
:1052D000FCF76AF8F2E700002DE9F04F484C4FF078
:1052E0007B087D2084F8188084F82E004548F6EE6F
:1052F000001A474990ED000A4348DFF81CB1DFF877
:105300001CC1D0ED000A30EE201A70EEC00A61EE2A
:10531000211A9FED3E1A61EE811AFDEEE11A11EE9F
:10532000900A00B2608381460020A083D1ED001A6C
:1053300080EEA10A20EE010ABDEEC00A10EE101A9E
:105340000FB23449E783B1F9026066840A88524299
:1053500015B2A584B1F90430E384BBF9022022859B
:10536000BBF80010494209B261859CF800C05FEAB1
:105370000C0A40D0A085DFF8A8C09CED000A20EE02
:10538000010ABDEEC00A10EE10CAA4F820C084F8CD
:10539000008084F801A04FEA192884F8028084F87C
:1053A00003904FEA102884F804806071380AA071D5
:1053B000E771300A20726672280AA072E572180A34
:1053C00020736373100AA073E273080A2074617477
:1053D000A08D010AA174E0744FEA1C20207584F8A6
:1053E00015C001211620FCF70BF8A07594F82E00CB
:1053F000E075BDE8F08FBBF804C0A4F82CC0BAE794
:105400005E060020FC590020185A002000007A4453
:1054100074010020FE010020F8010020440100205A
:105420001800002010B504460420FDF721FF0A48AB
:105430004FF47A71047014FB01F1012242804FF0A5
:10544000E020026942F0020202614161016941F01B
:105450000101016110BD0000B400002070B50446D8
:1054600002F05EFA01280CD0094D6888844203D30B
:10547000B4FBF0F001F078FC6888B4FBF0F100FBBD
:1054800011444FF47A706043BDE8704000F002B8F8
:10549000B400002070B54FF0E02500216C69094A86
:1054A000AB6912785043AA699A42FCD002D2A3EBAE
:1054B000020302E0A4EB020633441944134681427E
:1054C000F1D370BDB400002082B0CDE9000121F01D
:1054D000004001909DED000B02B051EC100B7047A5
:1054E00004490A885206FCD5024AC1B2121D118035
:1054F00070470000004C004010B502F011FA01287E
:1055000003D0BDE8104002F019BA0148406810BD50
:10551000B4000020054C064DD4F8B802C043C4F8CE
:10552000B802286801F020FCF6E700000080414244
:10553000340000201CB501F011F907490120CDE924
:1055400000010202002305A1074802F0BDF901F0A5
:10555000C1FD00201CBD00000000002073746172BA
:10556000745F7461736B00006D660008002800DAD8
:10557000404270470346012000E05843491EC9B22B
:10558000FBD270472DE9F0410A212DED028B82B04C
:105590000C20FCF727FAFE49096890FBF1F5FD485D
:1055A00090ED000ADFEDFC0ADFF8F083002120EE29
:1055B000200AFBA20846BDEEC00A88ED040AFDF7EA
:1055C00091F8F9480C24006810B1012808D00CE0CB
:1055D00001232A46002128200094FDF747F804E023
:1055E000F2A200212820FDF77DF8F1A2002137204A
:1055F000FDF778F8F04DB5F90400002809DAEFA2BC
:1056000000215A20FDF76EF80094B5F904004242DB
:1056100007E0EBA200215A20FDF764F80094B5F9E9
:105620000420032300216420FDF720F8E5A20A21CD
:105630000020FDF757F8E54DB5F90400002809DA18
:10564000DEA20A214120FDF74DF80094B5F90400CF
:10565000424207E0DAA20A214120FDF743F8009414
:10566000B5F9042005230A214B20FCF7FFFFD8A23F
:1056700014210020FDF736F8D64D95ED040A9FED74
:10568000D68ADFEDD68AB5EEC00AF1EE10FA0AD25C
:10569000CAA214210F20FDF725F8009495ED040A05
:1056A00020EE080A09E0C6A214210F20FDF71AF81F
:1056B000009495ED040A20EE280A142105230846DB
:1056C000BCEEC00A10EE102AFCF7D0FF95ED000AE0
:1056D000B5EEC00AF1EE10FA0AD2B8A214213C20AD
:1056E000FDF700F8009495ED000A20EE080A09E0A5
:1056F000B3A214213C20FCF7F5FF009495ED000ABD
:1057000020EE280A052314214B20BCEEC00A10EE1F
:10571000102AFCF7ABFFB2A21E210020FCF7E2FF2B
:10572000B04E96ED040AB5EEC00AF1EE10FA0AD2B8
:10573000A2A21E210F20FCF7D5FF009496ED040ACB
:1057400020EE080A09E09EA21E210F20FCF7CAFFE6
:10575000009496ED040A20EE280A05231E21142049
:10576000BCEEC00A10EE102AFCF780FF96ED000A8E
:10577000B5EEC00AF1EE10FA0AD290A21E213C202A
:10578000FCF7B0FF009496ED000A20EE080A09E04D
:105790008BA21E213C20FCF7A5FF009496ED000A89
:1057A00020EE280A05231E214B20BCEEC00A10EE75
:1057B000102AFCF75BFF8C4F3868E0BB8BA22821D6
:1057C0000020FCF78FFF95ED030AB5EEC00AF1EE5D
:1057D00010FA0AD279A228211420FCF783FF009442
:1057E00095ED030AB1EE400A07E075A228211420C6
:1057F000FCF778FF009495ED030A04232821BCEE02
:10580000C00A1E2010EE102AFCF730FF78A22821D3
:105810003C20FCF767FF96ED030AB5EEC00AF1EEF7
:1058200010FA0CD265A228215020FCF75BFF0094EF
:1058300096ED030A00E013E0B1EE400A07E060A233
:1058400028215020FCF74EFF009496ED030A042314
:105850002821BCEEC00A5A2010EE102AFCF706FFE1
:10586000386801284AD163A228210020FCF73AFFBA
:1058700095ED010AB5EEC00AF1EE10FA0AD24FA278
:1058800028211E20FCF72EFF009495ED010AB1EEB1
:10589000400A07E04AA228211E20FCF723FF0094BB
:1058A00095ED010A04232821BCEEC00A322010EE37
:1058B000102AFCF7DBFE96ED010AB5EEC00AF1EE08
:1058C00010FA0AD23DA228215020FCF70BFF0094C9
:1058D00096ED010AB1EE400A07E039A228215020D6
:1058E000FCF700FF009496ED010A04232821BCEE8A
:1058F000C00A642010EE102AFCF7B8FE3E4800787B
:1059000001281AD03D480078012818D03C4800787A
:10591000012816D03B480078012814D03A48007876
:10592000012812D039A232210020FCF7DBFE3948D1
:10593000D0F8100201280AD00CE037A2F3E738A211
:10594000F1E739A2EFE73AA2EDE73BA2EBE73C48EB
:105950000078D8B13BA232212D20FCF7C3FE3AA239
:1059600032215820FCF7BEFE38A232216E20FCF70F
:10597000B9FED8F81000642590FBF5F246460223E4
:1059800032214B200094FCF771FE61E080E00000C2
:105990005C010020180000200000C842DC0100204B
:1059A000545950453A00000098010020580000006A
:1059B0004249415300000000040200202D00000075
:1059C0002B0000004759524F5F5A0000F801002099
:1059D000444C3A00FC59002000007AC400007A448C
:1059E00044523A00185A0020F00100204D410000B6
:1059F0004D42000052504D0054010020550100203E
:105A0000560100205701002058010020524F53201A
:105A100000000000000042425053322020000000ED
:105A20004150502020000000522D43202000000053
:105A300043414E20200000005553415254000000C5
:105A4000440100204F4646002E0000005600000092
:105A50003069022390FBF5F105FB1102322162202F
:105A60000094FCF703FE306990FBF5F105FB110093
:105A70000A2806DA0223002232215C200094FCF777
:105A8000F5FD02B0BDEC028BBDE8F041FCF788BD2E
:105A900000A260E74F204E002DE9F041184E0F465E
:105AA0000446F5683068001D00F0D4FF38B930684E
:105AB00090F82C1001208840316981433161601CCD
:105AC00007D137B13168BDE8F0410E48091D00F03B
:105AD000F9BF30682C44AC424460316805D2B06BE9
